:100000000C942A000C943C000C943C000C943C0092
:100010000C943C000C943C000C943C000C943C0070
:100020000C943C000C943C000C943C000C943C0060
:100030000C943C000C943C000C943C000C943C0050
:100040000C943C000C943C000C943C000C943C0040
:100050000C943C0011241FBECFE5D8E0DEBFCDBF1D
:1000600020E0A0E6B0E001C01D92A036B207E1F7A3
:100070000E9408010C946B010C940000442379F158
:10008000413009F05FC0813079F028F08230A9F06A
:100090008330E1F008952AB381E090E001C0880F39
:1000A0006A95EAF7822B2CC027B381E090E001C06B
:1000B000880F6A95EAF7822B2EC024B381E090E086
:1000C00001C0880F6A95EAF7822B30C021B381E026
:1000D00090E001C0880F6A95EAF7822B32C0813028
:1000E00089F028F08230C9F0833011F108952AB3E5
:1000F00081E090E001C0880F6A95EAF7809582233D
:100100008ABB089527B381E090E001C0880F6A950B
:10011000EAF78095822387BB089524B381E090E0BD
:1001200001C0880F6A95EAF78095822384BB089501
:1001300021B381E090E001C0880F6A95EAF78095CD
:10014000822381BB0895442379F1413009F05FC0D7
:10015000813079F028F08230A9F08330E1F0089501
:100160002BB381E090E001C0880F6A95EAF7822BFB
:100170002CC028B381E090E001C0880F6A95EAF7AF
:10018000822B2EC025B381E090E001C0880F6A95D4
:10019000EAF7822B30C022B381E090E001C0880FE3
:1001A0006A95EAF7822B32C0813089F028F08230DC
:1001B000C9F0833011F108952BB381E090E001C0C4
:1001C000880F6A95EAF7809582238BBB089528B340
:1001D00081E090E001C0880F6A95EAF7809582235C
:1001E00088BB089525B381E090E001C0880F6A952F
:1001F000EAF78095822385BB089522B381E090E0E1
:1002000001C0880F6A95EAF78095822382BB089522
:1002100041E060E080E00E943E000E9454010E94A4
:100220002F010E944F012FEF89E698E12150804075
:100230009040E1F700C000000E946701C82F8823AA
:1002400029F08BB341E060E00E94A3008BB340E053
:1002500060E00E94A3008C2F0E944B01EDCF41E093
:1002600064E081E00E943E0041E065E081E00E94A0
:100270003E0040E066E081E00E943E0041E067E031
:1002800081E00E943E00689A699A6A986B986C9A1D
:100290006D986E9A08958FB9779BFECF089540E0D0
:1002A00064E081E00C94A30040E060E083E00E9401
:1002B0003E0041E061E083E00E943E008AB1886137
:1002C0008AB980B5866880BD83E389B908955F9B4C
:0A02D000FECF8CB10895F894FFCF23
:00000001FF
