S013000046696E616C5F536C6176652E73726563CD
S11300000C9433000C943D000C943D000C943D0082
S11300100C943D000C943D000C943D000C943D0068
S11300200C943D000C943D000C943D000C943D0058
S11300300C943D000C943D000C943D000C943D0048
S11300400C943D000C943D000C943D000C943D0038
S11300500C943D0098019B019E01A101A801AF01F0
S1130060A401AB01B20111241FBECFE5D8E0DEBF6D
S1130070CDBF0E9484010C94DB010C940000442346
S113008079F1413009F05FC0813079F028F0823095
S1130090A9F08330E1F008952AB381E090E001C033
S11300A0880F6A95EAF7822B2CC027B381E090E091
S11300B001C0880F6A95EAF7822B2EC024B381E031
S11300C090E001C0880F6A95EAF7822B30C021B313
S11300D081E090E001C0880F6A95EAF7822B32C074
S11300E0813089F028F08230C9F0833011F108950D
S11300F02AB381E090E001C0880F6A95EAF7809501
S113010082238ABB089527B381E090E001C0880F61
S11301106A95EAF78095822387BB089524B381E02A
S113012090E001C0880F6A95EAF78095822384BB2A
S1130130089521B381E090E001C0880F6A95EAF741
S11301408095822381BB0895442379F1413009F0DD
S11301505FC0813079F028F08230A9F08330E1F07B
S113016008952BB381E090E001C0880F6A95EAF707
S1130170822B2CC028B381E090E001C0880F6A95DF
S1130180EAF7822B2EC025B381E090E001C0880FEE
S11301906A95EAF7822B30C022B381E090E001C077
S11301A0880F6A95EAF7822B32C0813089F028F0F3
S11301B08230C9F0833011F108952BB381E090E0CF
S11301C001C0880F6A95EAF7809582238BBB089556
S11301D028B381E090E001C0880F6A95EAF7809522
S11301E0822388BB089525B381E090E001C0880F85
S11301F06A95EAF78095822385BB089522B381E04E
S113020090E001C0880F6A95EAF78095822382BB4B
S11302100895813081F028F08230B9F08330F9F00C
S113022008952BB381E090E001C0880F6A95EAF746
S113023082278BBB089528B381E090E001C0880F2A
S11302406A95EAF7822788BB089525B381E090E098
S113025001C0880F6A95EAF7822785BB089522B307
S113026081E090E001C0880F6A95EAF7822782BB9B
S1130270089541E060E083E00C943F0041E060E0D9
S113028083E00C94A40040E060E083E00C94A400BC
S113029060E083E00C94090141E061E083E00C94A8
S11302A03F0041E061E083E00C94A40040E061E0A1
S11302B083E00C94A40061E083E00C94090141E024
S11302C062E083E00C943F0041E062E083E00C9440
S11302D0A40040E062E083E00C94A40062E083E0C8
S11302E00C940901CF93DF93C0E0D0E00E94480151
S11302F00E945B010E946E012196C83883E1D807F1
S1130300A9F7DF91CF9108950E9439010E944C0111
S11303100E945F010E94B5010E94D10190E0FC019E
S1130320F197E930F105C0F7E65DFF4F0C94D50174
S11303300E943E01F1CF0E944301EECF0E94510181
S1130340EBCF0E945601E8CF0E943E010E9451016A
S11303500E946401E1CF0E9443010E9456010E9461
S11303606901DACF0E947201D7CF40E064E081E0F6
S11303700E943F0040E065E081E00E943F0041E0D0
S113038066E081E00E943F0040E067E081E00E9477
S11303903F00689869986A986B986C986D986E9A03
S11303A00895779BFECF8FB10895EE0FFF1F059040
S10D03B0F491E02D0994F894FFCFB6
S9030000FC
